{
  "_format": "hh-sol-artifact-1",
  "contractName": "WavePortal",
  "sourceName": "contracts/WavePortal.sol",
  "abi": [
    {
      "inputs": [],
      "stateMutability": "nonpayable",
      "type": "constructor"
    },
    {
      "inputs": [],
      "name": "getTotalWaves",
      "outputs": [
        {
          "internalType": "uint256",
          "name": "",
          "type": "uint256"
        }
      ],
      "stateMutability": "view",
      "type": "function"
    },
    {
      "inputs": [
        {
          "internalType": "address",
          "name": "waverAddress",
          "type": "address"
        }
      ],
      "name": "getWaverInfo",
      "outputs": [
        {
          "components": [
            {
              "internalType": "uint256",
              "name": "waveCount",
              "type": "uint256"
            },
            {
              "internalType": "uint256",
              "name": "lastWave",
              "type": "uint256"
            },
            {
              "internalType": "string[]",
              "name": "imageUrls",
              "type": "string[]"
            }
          ],
          "internalType": "struct WavePortal.waveInfo",
          "name": "",
          "type": "tuple"
        }
      ],
      "stateMutability": "view",
      "type": "function"
    },
    {
      "inputs": [],
      "name": "getWavers",
      "outputs": [
        {
          "internalType": "address[]",
          "name": "",
          "type": "address[]"
        }
      ],
      "stateMutability": "view",
      "type": "function"
    },
    {
      "inputs": [],
      "name": "iterateWavers",
      "outputs": [],
      "stateMutability": "view",
      "type": "function"
    },
    {
      "inputs": [
        {
          "internalType": "string",
          "name": "imageUrl",
          "type": "string"
        }
      ],
      "name": "submitImageUrl",
      "outputs": [],
      "stateMutability": "nonpayable",
      "type": "function"
    },
    {
      "inputs": [],
      "name": "wave",
      "outputs": [],
      "stateMutability": "nonpayable",
      "type": "function"
    },
    {
      "inputs": [
        {
          "internalType": "uint256",
          "name": "",
          "type": "uint256"
        }
      ],
      "name": "waverIds",
      "outputs": [
        {
          "internalType": "address",
          "name": "",
          "type": "address"
        }
      ],
      "stateMutability": "view",
      "type": "function"
    }
  ],
  "bytecode": "0x60806040523480156200001157600080fd5b506200004160405180606001604052806036815260200162001a80603691396200004760201b62000c291760201c565b620001db565b620000e7816040516024016200005e919062000154565b6040516020818303038152906040527f41304fac000000000000000000000000000000000000000000000000000000007bffffffffffffffffffffffffffffffffffffffffffffffffffffffff19166020820180517bffffffffffffffffffffffffffffffffffffffffffffffffffffffff8381831617835250505050620000ea60201b60201c565b50565b60008151905060006a636f6e736f6c652e6c6f679050602083016000808483855afa5050505050565b6000620001208262000178565b6200012c818562000183565b93506200013e81856020860162000194565b6200014981620001ca565b840191505092915050565b6000602082019050818103600083015262000170818462000113565b905092915050565b600081519050919050565b600082825260208201905092915050565b60005b83811015620001b457808201518184015260208101905062000197565b83811115620001c4576000848401525b50505050565b6000601f19601f8301169050919050565b61189580620001eb6000396000f3fe608060405234801561001057600080fd5b506004361061007d5760003560e01c80636fe15b441161005b5780636fe15b44146100ec5780639a2cdc08146100f6578063ed3caa0f14610114578063f2a6dd59146101445761007d565b8063146c188814610082578063160890bb146100b2578063635f29f8146100ce575b600080fd5b61009c6004803603810190610097919061114c565b61014e565b6040516100a99190611372565b60405180910390f35b6100cc60048036038101906100c7919061110b565b61018d565b005b6100d6610317565b6040516100e3919061138d565b60405180910390f35b6100f46103a5565b005b6100fe61069f565b60405161010b91906114b4565b60405180910390f35b61012e600480360381019061012991906110e2565b61072b565b60405161013b9190611492565b60405180910390f35b61014c6109b6565b005b6002818154811061015e57600080fd5b906000526020600020016000915054906101000a900473ffffffffffffffffffffffffffffffffffffffff1681565b6000600360003373ffffffffffffffffffffffffffffffffffffffff1673ffffffffffffffffffffffffffffffffffffffff1681526020019081526020016000206002018054905014156102585760018060008282546101ed91906115c4565b925050819055506002339080600181540180825580915050600190039060005260206000200160009091909190916101000a81548173ffffffffffffffffffffffffffffffffffffffff021916908373ffffffffffffffffffffffffffffffffffffffff1602179055505b600360003373ffffffffffffffffffffffffffffffffffffffff1673ffffffffffffffffffffffffffffffffffffffff168152602001908152602001600020600201819080600181540180825580915050600190039060005260206000200160009091909190915090805190602001906102d3929190610ec8565b506103146040518060400160405280601081526020017f25732068617320707573686564202573000000000000000000000000000000008152503383610cc2565b50565b6060600280548060200260200160405190810160405280929190818152602001828054801561039b57602002820191906000526020600020905b8160009054906101000a900473ffffffffffffffffffffffffffffffffffffffff1673ffffffffffffffffffffffffffffffffffffffff1681526020019060010190808311610351575b5050505050905090565b600060016000808282546103b991906115c4565b925050819055506000600360003373ffffffffffffffffffffffffffffffffffffffff1673ffffffffffffffffffffffffffffffffffffffff16815260200190815260200160002060010154141561048857600180600082825461041d91906115c4565b925050819055506002339080600181540180825580915050600190039060005260206000200160009091909190916101000a81548173ffffffffffffffffffffffffffffffffffffffff021916908373ffffffffffffffffffffffffffffffffffffffff1602179055505b6001600360003373ffffffffffffffffffffffffffffffffffffffff1673ffffffffffffffffffffffffffffffffffffffff168152602001908152602001600020600001546104d791906115c4565b90506040518060600160405280828152602001428152602001600360003373ffffffffffffffffffffffffffffffffffffffff1673ffffffffffffffffffffffffffffffffffffffff168152602001908152602001600020600201805480602002602001604051908101604052809291908181526020016000905b828210156105fe57838290600052602060002001805461057190611698565b80601f016020809104026020016040519081016040528092919081815260200182805461059d90611698565b80156105ea5780601f106105bf576101008083540402835291602001916105ea565b820191906000526020600020905b8154815290600101906020018083116105cd57829003601f168201915b505050505081526020019060010190610552565b50505050815250600360003373ffffffffffffffffffffffffffffffffffffffff1673ffffffffffffffffffffffffffffffffffffffff16815260200190815260200160002060008201518160000155602082015181600101556040820151816002019080519060200190610674929190610f4e565b5090505061069c60405180606001604052806023815260200161181160239139334284610d61565b50565b60006106e26040518060400160405280601781526020017f5765206861766520256420746f74616c20776176657321000000000000000000815250600054610e03565b6107236040518060400160405280601f81526020017f5765206861766520256420746f74616c2077617665727320776176696e672100815250600154610e03565b600054905090565b610733610fae565b60005b60015481101561098e576002818154811061077a577f4e487b7100000000000000000000000000000000000000000000000000000000600052603260045260246000fd5b9060005260206000200160009054906101000a900473ffffffffffffffffffffffffffffffffffffffff1673ffffffffffffffffffffffffffffffffffffffff168373ffffffffffffffffffffffffffffffffffffffff16141561097b576003600060028381548110610816577f4e487b7100000000000000000000000000000000000000000000000000000000600052603260045260246000fd5b9060005260206000200160009054906101000a900473ffffffffffffffffffffffffffffffffffffffff1673ffffffffffffffffffffffffffffffffffffffff1673ffffffffffffffffffffffffffffffffffffffff168152602001908152602001600020604051806060016040529081600082015481526020016001820154815260200160028201805480602002602001604051908101604052809291908181526020016000905b8282101561096b5783829060005260206000200180546108de90611698565b80601f016020809104026020016040519081016040528092919081815260200182805461090a90611698565b80156109575780601f1061092c57610100808354040283529160200191610957565b820191906000526020600020905b81548152906001019060200180831161093a57829003601f168201915b5050505050815260200190600101906108bf565b50505050815250509150506109b1565b8080610986906116fb565b915050610736565b506060604051806060016040528060008152602001428152602001828152509150505b919050565b6109f46040518060400160405280601581526020017f232323232323524553554c545323232323232323230000000000000000000000815250610c29565b60005b600154811015610be857610bd56040518060600160405280602c8152602001611834602c913960028381548110610a57577f4e487b7100000000000000000000000000000000000000000000000000000000600052603260045260246000fd5b9060005260206000200160009054906101000a900473ffffffffffffffffffffffffffffffffffffffff166003600060028681548110610ac0577f4e487b7100000000000000000000000000000000000000000000000000000000600052603260045260246000fd5b9060005260206000200160009054906101000a900473ffffffffffffffffffffffffffffffffffffffff1673ffffffffffffffffffffffffffffffffffffffff1673ffffffffffffffffffffffffffffffffffffffff168152602001908152602001600020600101546003600060028781548110610b67577f4e487b7100000000000000000000000000000000000000000000000000000000600052603260045260246000fd5b9060005260206000200160009054906101000a900473ffffffffffffffffffffffffffffffffffffffff1673ffffffffffffffffffffffffffffffffffffffff1673ffffffffffffffffffffffffffffffffffffffff16815260200190815260200160002060000154610d61565b8080610be0906116fb565b9150506109f7565b50610c276040518060400160405280600e81526020017f2323232323232323232323232323000000000000000000000000000000000000815250610c29565b565b610cbf81604051602401610c3d91906113af565b6040516020818303038152906040527f41304fac000000000000000000000000000000000000000000000000000000007bffffffffffffffffffffffffffffffffffffffffffffffffffffffff19166020820180517bffffffffffffffffffffffffffffffffffffffffffffffffffffffff8381831617835250505050610e9f565b50565b610d5c838383604051602401610cda939291906113d1565b6040516020818303038152906040527fe0e9ad4f000000000000000000000000000000000000000000000000000000007bffffffffffffffffffffffffffffffffffffffffffffffffffffffff19166020820180517bffffffffffffffffffffffffffffffffffffffffffffffffffffffff8381831617835250505050610e9f565b505050565b610dfd84848484604051602401610d7b9493929190611416565b6040516020818303038152906040527fdaa394bd000000000000000000000000000000000000000000000000000000007bffffffffffffffffffffffffffffffffffffffffffffffffffffffff19166020820180517bffffffffffffffffffffffffffffffffffffffffffffffffffffffff8381831617835250505050610e9f565b50505050565b610e9b8282604051602401610e19929190611462565b6040516020818303038152906040527f9710a9d0000000000000000000000000000000000000000000000000000000007bffffffffffffffffffffffffffffffffffffffffffffffffffffffff19166020820180517bffffffffffffffffffffffffffffffffffffffffffffffffffffffff8381831617835250505050610e9f565b5050565b60008151905060006a636f6e736f6c652e6c6f679050602083016000808483855afa5050505050565b828054610ed490611698565b90600052602060002090601f016020900481019282610ef65760008555610f3d565b82601f10610f0f57805160ff1916838001178555610f3d565b82800160010185558215610f3d579182015b82811115610f3c578251825591602001919060010190610f21565b5b509050610f4a9190610fcf565b5090565b828054828255906000526020600020908101928215610f9d579160200282015b82811115610f9c578251829080519060200190610f8c929190610ec8565b5091602001919060010190610f6e565b5b509050610faa9190610fec565b5090565b60405180606001604052806000815260200160008152602001606081525090565b5b80821115610fe8576000816000905550600101610fd0565b5090565b5b8082111561100c57600081816110039190611010565b50600101610fed565b5090565b50805461101c90611698565b6000825580601f1061102e575061104d565b601f01602090049060005260206000209081019061104c9190610fcf565b5b50565b600061106361105e846114f4565b6114cf565b90508281526020810184848401111561107b57600080fd5b611086848285611656565b509392505050565b60008135905061109d816117e2565b92915050565b600082601f8301126110b457600080fd5b81356110c4848260208601611050565b91505092915050565b6000813590506110dc816117f9565b92915050565b6000602082840312156110f457600080fd5b60006111028482850161108e565b91505092915050565b60006020828403121561111d57600080fd5b600082013567ffffffffffffffff81111561113757600080fd5b611143848285016110a3565b91505092915050565b60006020828403121561115e57600080fd5b600061116c848285016110cd565b91505092915050565b600061118183836111a1565b60208301905092915050565b60006111998383611292565b905092915050565b6111aa8161161a565b82525050565b6111b98161161a565b82525050565b60006111ca82611545565b6111d48185611580565b93506111df83611525565b8060005b838110156112105781516111f78882611175565b975061120283611566565b9250506001810190506111e3565b5085935050505092915050565b600061122882611550565b6112328185611591565b93508360208202850161124485611535565b8060005b858110156112805784840389528151611261858261118d565b945061126c83611573565b925060208a01995050600181019050611248565b50829750879550505050505092915050565b600061129d8261155b565b6112a781856115a2565b93506112b7818560208601611665565b6112c0816117d1565b840191505092915050565b60006112d68261155b565b6112e081856115b3565b93506112f0818560208601611665565b6112f9816117d1565b840191505092915050565b600060608301600083015161131c6000860182611354565b50602083015161132f6020860182611354565b5060408301518482036040860152611347828261121d565b9150508091505092915050565b61135d8161164c565b82525050565b61136c8161164c565b82525050565b600060208201905061138760008301846111b0565b92915050565b600060208201905081810360008301526113a781846111bf565b905092915050565b600060208201905081810360008301526113c981846112cb565b905092915050565b600060608201905081810360008301526113eb81866112cb565b90506113fa60208301856111b0565b818103604083015261140c81846112cb565b9050949350505050565b6000608082019050818103600083015261143081876112cb565b905061143f60208301866111b0565b61144c6040830185611363565b6114596060830184611363565b95945050505050565b6000604082019050818103600083015261147c81856112cb565b905061148b6020830184611363565b9392505050565b600060208201905081810360008301526114ac8184611304565b905092915050565b60006020820190506114c96000830184611363565b92915050565b60006114d96114ea565b90506114e582826116ca565b919050565b6000604051905090565b600067ffffffffffffffff82111561150f5761150e6117a2565b5b611518826117d1565b9050602081019050919050565b6000819050602082019050919050565b6000819050602082019050919050565b600081519050919050565b600081519050919050565b600081519050919050565b6000602082019050919050565b6000602082019050919050565b600082825260208201905092915050565b600082825260208201905092915050565b600082825260208201905092915050565b600082825260208201905092915050565b60006115cf8261164c565b91506115da8361164c565b9250827fffffffffffffffffffffffffffffffffffffffffffffffffffffffffffffffff0382111561160f5761160e611744565b5b828201905092915050565b60006116258261162c565b9050919050565b600073ffffffffffffffffffffffffffffffffffffffff82169050919050565b6000819050919050565b82818337600083830152505050565b60005b83811015611683578082015181840152602081019050611668565b83811115611692576000848401525b50505050565b600060028204905060018216806116b057607f821691505b602082108114156116c4576116c3611773565b5b50919050565b6116d3826117d1565b810181811067ffffffffffffffff821117156116f2576116f16117a2565b5b80604052505050565b60006117068261164c565b91507fffffffffffffffffffffffffffffffffffffffffffffffffffffffffffffffff82141561173957611738611744565b5b600182019050919050565b7f4e487b7100000000000000000000000000000000000000000000000000000000600052601160045260246000fd5b7f4e487b7100000000000000000000000000000000000000000000000000000000600052602260045260246000fd5b7f4e487b7100000000000000000000000000000000000000000000000000000000600052604160045260246000fd5b6000601f19601f8301169050919050565b6117eb8161161a565b81146117f657600080fd5b50565b6118028161164c565b811461180d57600080fd5b5056fe2573206861732077617665642061742025642120666f7220746f74616c206f662025645761766572202573207761766564206c6173742061743a20256420666f72206120746f74616c206f66202564a2646970667358221220ec863768a2b223933979d675d6ec6e4c8a83a869d3d78d42fd20b603ca2f43a464736f6c634300080400336865792068657920776861742063616e2049207361792c204920616d206120636f6e747261637420616e64204920616d20736d617274",
  "linkReferences": {},
  "deployedLinkReferences": {}
}