{
  "_format": "hh-sol-artifact-1",
  "contractName": "WavePortal",
  "sourceName": "contracts/WavePortal.sol",
  "abi": [
    {
      "inputs": [],
      "stateMutability": "payable",
      "type": "constructor"
    },
    {
      "inputs": [],
      "name": "getTotalWaves",
      "outputs": [
        {
          "internalType": "uint256",
          "name": "",
          "type": "uint256"
        }
      ],
      "stateMutability": "view",
      "type": "function"
    },
    {
      "inputs": [
        {
          "internalType": "address",
          "name": "waverAddress",
          "type": "address"
        }
      ],
      "name": "getWaverInfo",
      "outputs": [
        {
          "components": [
            {
              "internalType": "uint256",
              "name": "waveCount",
              "type": "uint256"
            },
            {
              "internalType": "uint256",
              "name": "lastWave",
              "type": "uint256"
            },
            {
              "internalType": "string[]",
              "name": "imageUrls",
              "type": "string[]"
            }
          ],
          "internalType": "struct WavePortal.waveInfo",
          "name": "",
          "type": "tuple"
        }
      ],
      "stateMutability": "view",
      "type": "function"
    },
    {
      "inputs": [],
      "name": "getWavers",
      "outputs": [
        {
          "internalType": "address[]",
          "name": "",
          "type": "address[]"
        }
      ],
      "stateMutability": "view",
      "type": "function"
    },
    {
      "inputs": [],
      "name": "iterateWavers",
      "outputs": [],
      "stateMutability": "view",
      "type": "function"
    },
    {
      "inputs": [
        {
          "internalType": "address",
          "name": "",
          "type": "address"
        }
      ],
      "name": "lastWavedAt",
      "outputs": [
        {
          "internalType": "uint256",
          "name": "",
          "type": "uint256"
        }
      ],
      "stateMutability": "view",
      "type": "function"
    },
    {
      "inputs": [
        {
          "internalType": "string",
          "name": "imageUrl",
          "type": "string"
        }
      ],
      "name": "submitImageUrl",
      "outputs": [],
      "stateMutability": "nonpayable",
      "type": "function"
    },
    {
      "inputs": [],
      "name": "wave",
      "outputs": [],
      "stateMutability": "nonpayable",
      "type": "function"
    },
    {
      "inputs": [
        {
          "internalType": "uint256",
          "name": "",
          "type": "uint256"
        }
      ],
      "name": "waverIds",
      "outputs": [
        {
          "internalType": "address",
          "name": "",
          "type": "address"
        }
      ],
      "stateMutability": "view",
      "type": "function"
    }
  ],
  "bytecode": "0x60806040526200003360405180606001604052806036815260200162001c28603691396200005b60201b62000cc01760201c565b60644442620000439190620001a8565b6200004f919062000245565b600281905550620002ec565b620000fb8160405160240162000072919062000168565b6040516020818303038152906040527f41304fac000000000000000000000000000000000000000000000000000000007bffffffffffffffffffffffffffffffffffffffffffffffffffffffff19166020820180517bffffffffffffffffffffffffffffffffffffffffffffffffffffffff8381831617835250505050620000fe60201b60201c565b50565b60008151905060006a636f6e736f6c652e6c6f679050602083016000808483855afa5050505050565b600062000134826200018c565b62000140818562000197565b9350620001528185602086016200020f565b6200015d81620002db565b840191505092915050565b6000602082019050818103600083015262000184818462000127565b905092915050565b600081519050919050565b600082825260208201905092915050565b6000620001b58262000205565b9150620001c28362000205565b9250827fffffffffffffffffffffffffffffffffffffffffffffffffffffffffffffffff03821115620001fa57620001f96200027d565b5b828201905092915050565b6000819050919050565b60005b838110156200022f57808201518184015260208101905062000212565b838111156200023f576000848401525b50505050565b6000620002528262000205565b91506200025f8362000205565b925082620002725762000271620002ac565b5b828206905092915050565b7f4e487b7100000000000000000000000000000000000000000000000000000000600052601160045260246000fd5b7f4e487b7100000000000000000000000000000000000000000000000000000000600052601260045260246000fd5b6000601f19601f8301169050919050565b61192c80620002fc6000396000f3fe608060405234801561001057600080fd5b50600436106100885760003560e01c80639a2cdc081161005b5780639a2cdc0814610101578063a42a46631461011f578063ed3caa0f1461014f578063f2a6dd591461017f57610088565b8063146c18881461008d578063160890bb146100bd578063635f29f8146100d95780636fe15b44146100f7575b600080fd5b6100a760048036038101906100a291906111e3565b610189565b6040516100b49190611409565b60405180910390f35b6100d760048036038101906100d291906111a2565b6101c8565b005b6100e1610396565b6040516100ee9190611424565b60405180910390f35b6100ff610424565b005b61010961071e565b604051610116919061154b565b60405180910390f35b61013960048036038101906101349190611179565b6107aa565b604051610146919061154b565b60405180910390f35b61016960048036038101906101649190611179565b6107c2565b6040516101769190611529565b60405180910390f35b610187610a4d565b005b6003818154811061019957600080fd5b906000526020600020016000915054906101000a900473ffffffffffffffffffffffffffffffffffffffff1681565b42600560003373ffffffffffffffffffffffffffffffffffffffff1673ffffffffffffffffffffffffffffffffffffffff168152602001908152602001600020819055506000600460003373ffffffffffffffffffffffffffffffffffffffff1673ffffffffffffffffffffffffffffffffffffffff1681526020019081526020016000206002018054905014156102d757600180600082825461026c919061165b565b925050819055506003339080600181540180825580915050600190039060005260206000200160009091909190916101000a81548173ffffffffffffffffffffffffffffffffffffffff021916908373ffffffffffffffffffffffffffffffffffffffff1602179055505b600460003373ffffffffffffffffffffffffffffffffffffffff1673ffffffffffffffffffffffffffffffffffffffff16815260200190815260200160002060020181908060018154018082558091505060019003906000526020600020016000909190919091509080519060200190610352929190610f5f565b506103936040518060400160405280601081526020017f25732068617320707573686564202573000000000000000000000000000000008152503383610d59565b50565b6060600380548060200260200160405190810160405280929190818152602001828054801561041a57602002820191906000526020600020905b8160009054906101000a900473ffffffffffffffffffffffffffffffffffffffff1673ffffffffffffffffffffffffffffffffffffffff16815260200190600101908083116103d0575b5050505050905090565b60006001600080828254610438919061165b565b925050819055506000600460003373ffffffffffffffffffffffffffffffffffffffff1673ffffffffffffffffffffffffffffffffffffffff16815260200190815260200160002060010154141561050757600180600082825461049c919061165b565b925050819055506003339080600181540180825580915050600190039060005260206000200160009091909190916101000a81548173ffffffffffffffffffffffffffffffffffffffff021916908373ffffffffffffffffffffffffffffffffffffffff1602179055505b6001600460003373ffffffffffffffffffffffffffffffffffffffff1673ffffffffffffffffffffffffffffffffffffffff16815260200190815260200160002060000154610556919061165b565b90506040518060600160405280828152602001428152602001600460003373ffffffffffffffffffffffffffffffffffffffff1673ffffffffffffffffffffffffffffffffffffffff168152602001908152602001600020600201805480602002602001604051908101604052809291908181526020016000905b8282101561067d5783829060005260206000200180546105f09061172f565b80601f016020809104026020016040519081016040528092919081815260200182805461061c9061172f565b80156106695780601f1061063e57610100808354040283529160200191610669565b820191906000526020600020905b81548152906001019060200180831161064c57829003601f168201915b5050505050815260200190600101906105d1565b50505050815250600460003373ffffffffffffffffffffffffffffffffffffffff1673ffffffffffffffffffffffffffffffffffffffff168152602001908152602001600020600082015181600001556020820151816001015560408201518160020190805190602001906106f3929190610fe5565b5090505061071b6040518060600160405280602381526020016118a860239139334284610df8565b50565b60006107616040518060400160405280601781526020017f5765206861766520256420746f74616c20776176657321000000000000000000815250600054610e9a565b6107a26040518060400160405280601f81526020017f5765206861766520256420746f74616c2077617665727320776176696e672100815250600154610e9a565b600054905090565b60056020528060005260406000206000915090505481565b6107ca611045565b60005b600154811015610a255760038181548110610811577f4e487b7100000000000000000000000000000000000000000000000000000000600052603260045260246000fd5b9060005260206000200160009054906101000a900473ffffffffffffffffffffffffffffffffffffffff1673ffffffffffffffffffffffffffffffffffffffff168373ffffffffffffffffffffffffffffffffffffffff161415610a125760046000600383815481106108ad577f4e487b7100000000000000000000000000000000000000000000000000000000600052603260045260246000fd5b9060005260206000200160009054906101000a900473ffffffffffffffffffffffffffffffffffffffff1673ffffffffffffffffffffffffffffffffffffffff1673ffffffffffffffffffffffffffffffffffffffff168152602001908152602001600020604051806060016040529081600082015481526020016001820154815260200160028201805480602002602001604051908101604052809291908181526020016000905b82821015610a025783829060005260206000200180546109759061172f565b80601f01602080910402602001604051908101604052809291908181526020018280546109a19061172f565b80156109ee5780601f106109c3576101008083540402835291602001916109ee565b820191906000526020600020905b8154815290600101906020018083116109d157829003601f168201915b505050505081526020019060010190610956565b5050505081525050915050610a48565b8080610a1d90611792565b9150506107cd565b506060604051806060016040528060008152602001428152602001828152509150505b919050565b610a8b6040518060400160405280601581526020017f232323232323524553554c545323232323232323230000000000000000000000815250610cc0565b60005b600154811015610c7f57610c6c6040518060600160405280602c81526020016118cb602c913960038381548110610aee577f4e487b7100000000000000000000000000000000000000000000000000000000600052603260045260246000fd5b9060005260206000200160009054906101000a900473ffffffffffffffffffffffffffffffffffffffff166004600060038681548110610b57577f4e487b7100000000000000000000000000000000000000000000000000000000600052603260045260246000fd5b9060005260206000200160009054906101000a900473ffffffffffffffffffffffffffffffffffffffff1673ffffffffffffffffffffffffffffffffffffffff1673ffffffffffffffffffffffffffffffffffffffff168152602001908152602001600020600101546004600060038781548110610bfe577f4e487b7100000000000000000000000000000000000000000000000000000000600052603260045260246000fd5b9060005260206000200160009054906101000a900473ffffffffffffffffffffffffffffffffffffffff1673ffffffffffffffffffffffffffffffffffffffff1673ffffffffffffffffffffffffffffffffffffffff16815260200190815260200160002060000154610df8565b8080610c7790611792565b915050610a8e565b50610cbe6040518060400160405280600e81526020017f2323232323232323232323232323000000000000000000000000000000000000815250610cc0565b565b610d5681604051602401610cd49190611446565b6040516020818303038152906040527f41304fac000000000000000000000000000000000000000000000000000000007bffffffffffffffffffffffffffffffffffffffffffffffffffffffff19166020820180517bffffffffffffffffffffffffffffffffffffffffffffffffffffffff8381831617835250505050610f36565b50565b610df3838383604051602401610d7193929190611468565b6040516020818303038152906040527fe0e9ad4f000000000000000000000000000000000000000000000000000000007bffffffffffffffffffffffffffffffffffffffffffffffffffffffff19166020820180517bffffffffffffffffffffffffffffffffffffffffffffffffffffffff8381831617835250505050610f36565b505050565b610e9484848484604051602401610e1294939291906114ad565b6040516020818303038152906040527fdaa394bd000000000000000000000000000000000000000000000000000000007bffffffffffffffffffffffffffffffffffffffffffffffffffffffff19166020820180517bffffffffffffffffffffffffffffffffffffffffffffffffffffffff8381831617835250505050610f36565b50505050565b610f328282604051602401610eb09291906114f9565b6040516020818303038152906040527f9710a9d0000000000000000000000000000000000000000000000000000000007bffffffffffffffffffffffffffffffffffffffffffffffffffffffff19166020820180517bffffffffffffffffffffffffffffffffffffffffffffffffffffffff8381831617835250505050610f36565b5050565b60008151905060006a636f6e736f6c652e6c6f679050602083016000808483855afa5050505050565b828054610f6b9061172f565b90600052602060002090601f016020900481019282610f8d5760008555610fd4565b82601f10610fa657805160ff1916838001178555610fd4565b82800160010185558215610fd4579182015b82811115610fd3578251825591602001919060010190610fb8565b5b509050610fe19190611066565b5090565b828054828255906000526020600020908101928215611034579160200282015b82811115611033578251829080519060200190611023929190610f5f565b5091602001919060010190611005565b5b5090506110419190611083565b5090565b60405180606001604052806000815260200160008152602001606081525090565b5b8082111561107f576000816000905550600101611067565b5090565b5b808211156110a3576000818161109a91906110a7565b50600101611084565b5090565b5080546110b39061172f565b6000825580601f106110c557506110e4565b601f0160209004906000526020600020908101906110e39190611066565b5b50565b60006110fa6110f58461158b565b611566565b90508281526020810184848401111561111257600080fd5b61111d8482856116ed565b509392505050565b60008135905061113481611879565b92915050565b600082601f83011261114b57600080fd5b813561115b8482602086016110e7565b91505092915050565b60008135905061117381611890565b92915050565b60006020828403121561118b57600080fd5b600061119984828501611125565b91505092915050565b6000602082840312156111b457600080fd5b600082013567ffffffffffffffff8111156111ce57600080fd5b6111da8482850161113a565b91505092915050565b6000602082840312156111f557600080fd5b600061120384828501611164565b91505092915050565b60006112188383611238565b60208301905092915050565b60006112308383611329565b905092915050565b611241816116b1565b82525050565b611250816116b1565b82525050565b6000611261826115dc565b61126b8185611617565b9350611276836115bc565b8060005b838110156112a757815161128e888261120c565b9750611299836115fd565b92505060018101905061127a565b5085935050505092915050565b60006112bf826115e7565b6112c98185611628565b9350836020820285016112db856115cc565b8060005b8581101561131757848403895281516112f88582611224565b94506113038361160a565b925060208a019950506001810190506112df565b50829750879550505050505092915050565b6000611334826115f2565b61133e8185611639565b935061134e8185602086016116fc565b61135781611868565b840191505092915050565b600061136d826115f2565b611377818561164a565b93506113878185602086016116fc565b61139081611868565b840191505092915050565b60006060830160008301516113b360008601826113eb565b5060208301516113c660208601826113eb565b50604083015184820360408601526113de82826112b4565b9150508091505092915050565b6113f4816116e3565b82525050565b611403816116e3565b82525050565b600060208201905061141e6000830184611247565b92915050565b6000602082019050818103600083015261143e8184611256565b905092915050565b600060208201905081810360008301526114608184611362565b905092915050565b600060608201905081810360008301526114828186611362565b90506114916020830185611247565b81810360408301526114a38184611362565b9050949350505050565b600060808201905081810360008301526114c78187611362565b90506114d66020830186611247565b6114e360408301856113fa565b6114f060608301846113fa565b95945050505050565b600060408201905081810360008301526115138185611362565b905061152260208301846113fa565b9392505050565b60006020820190508181036000830152611543818461139b565b905092915050565b600060208201905061156060008301846113fa565b92915050565b6000611570611581565b905061157c8282611761565b919050565b6000604051905090565b600067ffffffffffffffff8211156115a6576115a5611839565b5b6115af82611868565b9050602081019050919050565b6000819050602082019050919050565b6000819050602082019050919050565b600081519050919050565b600081519050919050565b600081519050919050565b6000602082019050919050565b6000602082019050919050565b600082825260208201905092915050565b600082825260208201905092915050565b600082825260208201905092915050565b600082825260208201905092915050565b6000611666826116e3565b9150611671836116e3565b9250827fffffffffffffffffffffffffffffffffffffffffffffffffffffffffffffffff038211156116a6576116a56117db565b5b828201905092915050565b60006116bc826116c3565b9050919050565b600073ffffffffffffffffffffffffffffffffffffffff82169050919050565b6000819050919050565b82818337600083830152505050565b60005b8381101561171a5780820151818401526020810190506116ff565b83811115611729576000848401525b50505050565b6000600282049050600182168061174757607f821691505b6020821081141561175b5761175a61180a565b5b50919050565b61176a82611868565b810181811067ffffffffffffffff8211171561178957611788611839565b5b80604052505050565b600061179d826116e3565b91507fffffffffffffffffffffffffffffffffffffffffffffffffffffffffffffffff8214156117d0576117cf6117db565b5b600182019050919050565b7f4e487b7100000000000000000000000000000000000000000000000000000000600052601160045260246000fd5b7f4e487b7100000000000000000000000000000000000000000000000000000000600052602260045260246000fd5b7f4e487b7100000000000000000000000000000000000000000000000000000000600052604160045260246000fd5b6000601f19601f8301169050919050565b611882816116b1565b811461188d57600080fd5b50565b611899816116e3565b81146118a457600080fd5b5056fe2573206861732077617665642061742025642120666f7220746f74616c206f662025645761766572202573207761766564206c6173742061743a20256420666f72206120746f74616c206f66202564a26469706673582212200c811d8c3b6207a4cb9c64e37b0dbe9408b736f2e3b89a85f7098c1e2596370364736f6c634300080400336865792068657920776861742063616e2049207361792c204920616d206120636f6e747261637420616e64204920616d20736d617274",
  "linkReferences": {},
  "deployedLinkReferences": {}
}