{
  "_format": "hh-sol-artifact-1",
  "contractName": "WavePortal",
  "sourceName": "contracts/WavePortal.sol",
  "abi": [
    {
      "inputs": [],
      "stateMutability": "nonpayable",
      "type": "constructor"
    },
    {
      "inputs": [],
      "name": "getTotalWaves",
      "outputs": [
        {
          "internalType": "uint256",
          "name": "",
          "type": "uint256"
        }
      ],
      "stateMutability": "view",
      "type": "function"
    },
    {
      "inputs": [],
      "name": "iterateWavers",
      "outputs": [],
      "stateMutability": "view",
      "type": "function"
    },
    {
      "inputs": [],
      "name": "wave",
      "outputs": [],
      "stateMutability": "nonpayable",
      "type": "function"
    },
    {
      "inputs": [
        {
          "internalType": "uint256",
          "name": "",
          "type": "uint256"
        }
      ],
      "name": "waverIds",
      "outputs": [
        {
          "internalType": "address",
          "name": "",
          "type": "address"
        }
      ],
      "stateMutability": "view",
      "type": "function"
    }
  ],
  "bytecode": "0x60806040523480156200001157600080fd5b506200004160405180606001604052806036815260200162000d11603691396200004760201b620005b71760201c565b620001db565b620000e7816040516024016200005e919062000154565b6040516020818303038152906040527f41304fac000000000000000000000000000000000000000000000000000000007bffffffffffffffffffffffffffffffffffffffffffffffffffffffff19166020820180517bffffffffffffffffffffffffffffffffffffffffffffffffffffffff8381831617835250505050620000ea60201b60201c565b50565b60008151905060006a636f6e736f6c652e6c6f679050602083016000808483855afa5050505050565b6000620001208262000178565b6200012c818562000183565b93506200013e81856020860162000194565b6200014981620001ca565b840191505092915050565b6000602082019050818103600083015262000170818462000113565b905092915050565b600081519050919050565b600082825260208201905092915050565b60005b83811015620001b457808201518184015260208101905062000197565b83811115620001c4576000848401525b50505050565b6000601f19601f8301169050919050565b610b2680620001eb6000396000f3fe608060405234801561001057600080fd5b506004361061004c5760003560e01c8063146c1888146100515780636fe15b44146100815780639a2cdc081461008b578063f2a6dd59146100a9575b600080fd5b61006b600480360381019061006691906107cc565b6100b3565b604051610078919061084c565b60405180910390f35b6100896100f2565b005b6100936102b8565b6040516100a09190610905565b60405180910390f35b6100b1610344565b005b600281815481106100c357600080fd5b906000526020600020016000915054906101000a900473ffffffffffffffffffffffffffffffffffffffff1681565b60006001600080828254610106919061093c565b925050819055506000600360003373ffffffffffffffffffffffffffffffffffffffff1673ffffffffffffffffffffffffffffffffffffffff1681526020019081526020016000206001015414156101d557600180600082825461016a919061093c565b925050819055506002339080600181540180825580915050600190039060005260206000200160009091909190916101000a81548173ffffffffffffffffffffffffffffffffffffffff021916908373ffffffffffffffffffffffffffffffffffffffff1602179055505b6001600360003373ffffffffffffffffffffffffffffffffffffffff1673ffffffffffffffffffffffffffffffffffffffff16815260200190815260200160002060000154610224919061093c565b9050604051806040016040528082815260200142815250600360003373ffffffffffffffffffffffffffffffffffffffff1673ffffffffffffffffffffffffffffffffffffffff16815260200190815260200160002060008201518160000155602082015181600101559050506102b5604051806060016040528060238152602001610aa260239139334284610650565b50565b60006102fb6040518060400160405280601781526020017f5765206861766520256420746f74616c207761766573210000000000000000008152506000546106f2565b61033c6040518060400160405280601f81526020017f5765206861766520256420746f74616c2077617665727320776176696e6721008152506001546106f2565b600054905090565b6103826040518060400160405280601581526020017f232323232323524553554c5453232323232323232300000000000000000000008152506105b7565b60005b600154811015610576576105636040518060600160405280602c8152602001610ac5602c9139600283815481106103e5577f4e487b7100000000000000000000000000000000000000000000000000000000600052603260045260246000fd5b9060005260206000200160009054906101000a900473ffffffffffffffffffffffffffffffffffffffff16600360006002868154811061044e577f4e487b7100000000000000000000000000000000000000000000000000000000600052603260045260246000fd5b9060005260206000200160009054906101000a900473ffffffffffffffffffffffffffffffffffffffff1673ffffffffffffffffffffffffffffffffffffffff1673ffffffffffffffffffffffffffffffffffffffff1681526020019081526020016000206001015460036000600287815481106104f5577f4e487b7100000000000000000000000000000000000000000000000000000000600052603260045260246000fd5b9060005260206000200160009054906101000a900473ffffffffffffffffffffffffffffffffffffffff1673ffffffffffffffffffffffffffffffffffffffff1673ffffffffffffffffffffffffffffffffffffffff16815260200190815260200160002060000154610650565b808061056e90610a01565b915050610385565b506105b56040518060400160405280600e81526020017f23232323232323232323232323230000000000000000000000000000000000008152506105b7565b565b61064d816040516024016105cb9190610867565b6040516020818303038152906040527f41304fac000000000000000000000000000000000000000000000000000000007bffffffffffffffffffffffffffffffffffffffffffffffffffffffff19166020820180517bffffffffffffffffffffffffffffffffffffffffffffffffffffffff838183161783525050505061078e565b50565b6106ec8484848460405160240161066a9493929190610889565b6040516020818303038152906040527fdaa394bd000000000000000000000000000000000000000000000000000000007bffffffffffffffffffffffffffffffffffffffffffffffffffffffff19166020820180517bffffffffffffffffffffffffffffffffffffffffffffffffffffffff838183161783525050505061078e565b50505050565b61078a82826040516024016107089291906108d5565b6040516020818303038152906040527f9710a9d0000000000000000000000000000000000000000000000000000000007bffffffffffffffffffffffffffffffffffffffffffffffffffffffff19166020820180517bffffffffffffffffffffffffffffffffffffffffffffffffffffffff838183161783525050505061078e565b5050565b60008151905060006a636f6e736f6c652e6c6f679050602083016000808483855afa5050505050565b6000813590506107c681610a8a565b92915050565b6000602082840312156107de57600080fd5b60006107ec848285016107b7565b91505092915050565b6107fe81610992565b82525050565b600061080f82610920565b610819818561092b565b93506108298185602086016109ce565b61083281610a79565b840191505092915050565b610846816109c4565b82525050565b600060208201905061086160008301846107f5565b92915050565b600060208201905081810360008301526108818184610804565b905092915050565b600060808201905081810360008301526108a38187610804565b90506108b260208301866107f5565b6108bf604083018561083d565b6108cc606083018461083d565b95945050505050565b600060408201905081810360008301526108ef8185610804565b90506108fe602083018461083d565b9392505050565b600060208201905061091a600083018461083d565b92915050565b600081519050919050565b600082825260208201905092915050565b6000610947826109c4565b9150610952836109c4565b9250827fffffffffffffffffffffffffffffffffffffffffffffffffffffffffffffffff0382111561098757610986610a4a565b5b828201905092915050565b600061099d826109a4565b9050919050565b600073ffffffffffffffffffffffffffffffffffffffff82169050919050565b6000819050919050565b60005b838110156109ec5780820151818401526020810190506109d1565b838111156109fb576000848401525b50505050565b6000610a0c826109c4565b91507fffffffffffffffffffffffffffffffffffffffffffffffffffffffffffffffff821415610a3f57610a3e610a4a565b5b600182019050919050565b7f4e487b7100000000000000000000000000000000000000000000000000000000600052601160045260246000fd5b6000601f19601f8301169050919050565b610a93816109c4565b8114610a9e57600080fd5b5056fe2573206861732077617665642061742025642120666f7220746f74616c206f662025645761766572202573207761766564206c6173742061743a20256420666f72206120746f74616c206f66202564a2646970667358221220498d12d2bf10e7436dcc01387b021f057bd6fd4d44c3bd4fb05a398ec120aa0f64736f6c634300080400336865792068657920776861742063616e2049207361792c204920616d206120636f6e747261637420616e64204920616d20736d617274",
  "linkReferences": {},
  "deployedLinkReferences": {}
}